:020000040800F2
:100000003809002081020008A13600081D2F0008D1
:100010005536000865240008D1490008000000009A
:10002000000000000000000000000000554600082D
:10003000B1240008000000009702000841470008B2
:100040009B0200089B0200089B020008694100080F
:100050009B0200089B020008512D00089B0200082B
:100060009B0200089B0200089B0200089B020008FC
:100070009B0200089B0200089B0200089B020008EC
:100080009B0200089B0200089B0200089B020008DC
:100090009B0200089B0200089B0200089B020008CC
:1000A0009B0200089B0200089B0200089B020008BC
:1000B0009B0200089B0200089B0200089B020008AC
:1000C0009B0200089B0200089B0200089B0200089C
:1000D0009B020008A5470008C14700089B020008D2
:1000E0009B0200089B0200089B0200089B0200087C
:1000F0009B0200089B0200089B0200089B0200086C
:100100009B0200089B0200089B0200089B0200085B
:100110009B0200089B0200089B0200089B0200084B
:100120009B0200089B0200089B0200089B0200083B
:1001300000F002F800F094F80AA090E8000C824465
:100140008344AAF10107DA4501D100F089F8AFF242
:10015000090EBAE80F0013F0010F18BFFB1A43F0A5
:1001600001031847F060000010610000103A24BF3E
:1001700078C878C1FAD8520724BF30C830C144BF0C
:1001800004680C607047000000230024002500264E
:10019000103A28BF78C1FBD8520728BF30C148BFEA
:1001A0000B6070476E2900F02584702900F07F876E
:1001B000662905F01C87652905F01987672905F070
:1001C00016876129AFF3008003681B0A28BF41F03E
:1001D0008001692900F0FA80642900F0F780752910
:1001E00000F0F4806F2900F00C87782900F04B872D
:1001F000E92900F0A786E42900F0A486F52900F09B
:10020000A186EF2900F00987F82900F04A870368E2
:10021000DB0928BF41F08001632901F07780732951
:1002200001F07C80E32901F08780F32901F08C80C4
:10023000002070471FB59DE8030000F0DFFA00F0D2
:10024000B7FF04000020002104F034FF401C606070
:100250000020002104F018FFE0601FBD10B510BDA4
:1002600001F060F91146FFF7E5FF04F067FE01F0C9
:100270008CF903B4FFF7F2FF03BC01F0FDF90000B5
:100280000948804709480047FEE7FEE7FEE7FEE72A
:10029000FEE7FEE7FEE7FEE7FEE7FEE70448054966
:1002A000054A064B70470000454700083101000829
:1002B00038010020380900203805002038050020CA
:1002C00070B5064600F07AFA056806F10B0020F0DA
:1002D0000704B4429CBF002070BD2B466A68BAB1C7
:1002E0001068A04210D304F1080188423CBF506856
:1002F000586007D35168101941601168091B0160EB
:1003000058601460101D70BD13465268002AE7D172
:100310002146284600F05EFA0028DED170BD70B597
:100320000446051F00F04AFA0068002C14BF446818
:1003300070BD002C18BFAC423CBF20466468F8D3A7
:1003400001680A18AA4218BF456003D12A68054609
:100350001144016028684119A1421CBF6C6070BD46
:100360006168696021680844286070BD7CB51D46DD
:1003700016460C00009001D02044401E074B7B44E1
:100380002A4669460190304600F05DFD05461CB1E5
:100390000020694600F06AFD28467CBDF50A000091
:1003A0000FB41CB5084B06AA7B446946009005981B
:1003B00000F049FD04460020694600F057FD204644
:1003C0001CBC5DF814FB0000C10A00002DE9F041DF
:1003D0000646002410687529314616A510D000F095
:1003E00075FA002802DA404213A507E031688A074F
:1003F00001D512A502E0490704D511A5012401E0A9
:1004000000F06DFA00210A2206F1240709E0B0FB92
:10041000F2FCB0FBF2F302FB1C00303078541846BB
:10042000491C0028F3D123462A463046BDE8F04156
:1004300000F087BA000000002D0000002B00000033
:10044000200000002DE9F05F894604464FF0000AC5
:10045000DFF874B1FB44C0F820A02046E16888476B
:10046000002874D0252806D0D4E901219047206ABD
:10047000401C2062F1E700265F462046E16888477D
:100480002028054607DB312D05D2781910F8200CFD
:1004900008B10643F1E7B00701D526F00406C4F819
:1004A0001CA00027C4F818A02A2D09D0284604F063
:1004B0002DFC38B304EB8708303DC8F8185019E01C
:1004C00059F8041B204604EB87029161E1688847D4
:1004D000012F054618D1E069002820DA26F0200611
:1004E0001DE0D8F8180000EB800005EB4000303824
:1004F000C8F818002046E1688847054604F006FC65
:100500000028EED1012F0AD02E2D08D12046E16817
:1005100088477F1C0546022F46F02006C4DBA069F1
:10052000002803DA404246F00106A061F00701D03E
:1005300026F010066C2D0BD0682D09D04C2D39D02B
:100540006A2D35D0742D35D07A2D33D016E038E0B1
:10055000E1682F4620468847B842054609D16C2FEE
:1005600026D04FF48060E168064320468847054660
:1005700004E06C2F1AD04FF4807006430DB3A5F140
:100580004100192802D8203546F400664A4629461B
:10059000204626604E46FFF705FE80B101280BD0AD
:1005A000F61D26F0070000F1080956E74020E4E7B1
:1005B0008020D8E70020D6E706F104094DE7284659
:1005C00052E7206ABDE8F09F8A5C000070B50646DD
:1005D00000F0F8F80468054630460A22002100F0D1
:1005E00071FD2C6070BD401ECAB210F8011F8A4216
:1005F00002D00029F9D10020704710B5431E13F82E
:10060000014F002CFBD105E011F8014B002C03F841
:10061000014B03D0521EF7D20021197010BD30B526
:1006200005460B462A4613F8014B12F8010B08B198
:10063000A042F8D01CB1002802D06D1CF1E728467A
:1006400030BD10B5431C02E010F8011B71B18107E9
:10065000FAD14FF0013202C88C1A8C4314EAC2114D
:10066000F9D0C01A0A0603D0C01E10BDC01A10BDB2
:100670000A0401D0801E10BD0902FCD0401E10BD2E
:10068000421E12F8013F002BFBD111F8013B002B59
:1006900002F8013BF9D17047032A40F2308010F094
:1006A000030C00F0158011F8013BBCF1020F62440D
:1006B00098BF11F801CB00F8013B38BF11F8013B9E
:1006C000A2F1040298BF00F801CB38BF00F8013B4B
:1006D00011F0030300F02E85083AC0F0088051F8AD
:1006E000043B083A51F804CBA0E80810F5E7121DC6
:1006F0005CBF51F8043B40F8043BAFF30080D207E5
:1007000024BF11F8013B11F801CB48BF11F8012BB0
:1007100024BF00F8013B00F801CB48BF00F8012BD3
:1007200070474FF000020429C0F0128010F0030C53
:1007300000F01B80CCF1040CBCF1020F18BF00F8D4
:10074000012BA8BF20F8022BA1EB0C0100F00DB883
:100750005FEAC17C24BF00F8012B00F8012B48BFE1
:1007600000F8012B70474FF0000200B51346944685
:100770009646203922BFA0E80C50A0E80C50B1F1F9
:100780002001BFF4F7AF090728BFA0E80C5048BF0D
:100790000CC05DF804EB890028BF40F8042B08BFAB
:1007A000704748BF20F8022B11F0804F18BF00F8A7
:1007B000012B704770477047704700000048704732
:1007C000E000002000487047D800002070477047C4
:1007D0007047704738B504460A4600206946AFF3B3
:1007E0000080002808BF38BD02460099204600F06E
:1007F000E3FC012038BD012000F08CBEF8B5AFF35A
:100800000080054600200C46102000BF0646A819AF
:10081000A0420DD9324669460020AFF300800700A0
:1008200008BF00F077FE0098A04218BF0546C41923
:10083000FFF7C4FF05600746F01D20F007004619CA
:10084000284600F00AF8B44208BFF8BDA21B3146A2
:100850003868BDE8F84000F0AFBC00210160C0E995
:10086000011070471020704710B5FFF7ABFF00680C
:1008700010BD10B50446FFF7A5FF046010BD70B5AC
:10088000044685690068C10601D5302600E02026AF
:10089000C00707D070BDD4E9012130469047206AD7
:1008A000401C20626D1EF6D570BD70B5044685698A
:1008B0000078C00707D170BDD4E9012120209047FE
:1008C000206A401C20626D1EF6D570BD09684A057D
:1008D00001D540B27047C905FCD500B27047096820
:1008E0004A0501D5C0B27047C905FCD580B2704732
:1008F00070B50C460546012A05D02878800600D53B
:10090000EA69002302E0012305E05B1C934202D266
:10091000E05C0028F9D1A869E618C01AA861286A25
:10092000184428622846FFF7AAFF04E0D5E9012110
:1009300014F8010B9047B442F8D32846FFF7B5FFEF
:1009400070BD2DE9F0470D4699469246044600F1E8
:1009500024080168880604D5E06921F010012160AF
:1009600000E00120A84201DD471B00E00027A1694B
:100970007A1902EB0900081AA0612078C00602D497
:100980002046FFF77CFF002608E0D4E901211AF891
:1009900006009047206A401C761C20624E45F4DB1E
:1009A0002078C0060AD52046FFF769FF06E0D4E9A3
:1009B000012130209047206A401C2062381EA7F198
:1009C0000107F4DC07E0D4E9012118F8050090479D
:1009D000206A401C2062281EA5F10105F3DC204698
:1009E000FFF763FF2078000602D50220BDE8F087FC
:1009F0000120FBE711680268006A530501D5087001
:100A00000AE0D30501D5088006E0130603D5C21716
:100A1000C1E9000200E008600120704770472DE93D
:100A2000FF4F0C461E464FF0FF378BB0D2E9000156
:100A3000DDF860800A908A46C1F30A5505B93D4643
:100A4000002108464FF00000BAF1000F00F440000A
:100A500005DA00EB80004FF4400101EA50004FEA54
:100A60009059B9F1010F00DDB9460A9850EA4A00E1
:100A70000ED044F61050A5F2FF3545432F14B8F1BF
:100A8000000F1ED07542291E1EDDC9F100021CE0B8
:100A9000B8F1010F4FF0000001D0302103E0F24324
:100AA00005E02154401CB042FBDB3046002200210F
:100AB00021540B99C1F80880C1E900200FB0BDE8AE
:100AC000F08FBD1B6D1CDEE74A4600DA694206A8BE
:100AD00000F08EFC06AB93E8070003AB83E8070049
:100AE00050460A9900F0EEFD8DE80700A0F5005091
:100AF0001F3800900398002D0ADD42F21F014A467C
:100B00000844002303A90390684601F057F809E060
:100B1000A0F500504A461F38002303A903906846F9
:100B200001F061F88DE807000004000C03D04FF0DD
:100B3000FF30410800E01046B8F1000F03D000225A
:100B4000009215461EE0751E05D400F04FFB3032B2
:100B500062556D1EF9D5B3460122084302D000222A
:100B60007F1C04E02078302801D100227F1E002A5B
:100B7000099784D01DE0112D07DA00F037FB3032E1
:100B800062556D1C50EA0102F5D1084302D000986D
:100B9000C8B10EE00021681E05E0235C625C63546E
:100BA0002254401E491C8142F7DBAB46A81B401E65
:100BB0000990002004F80B000B98099AC0F80880EF
:100BC000C0E9002B7AE711264FF0000857E72DE91E
:100BD000F04F88460446D21D22F0070191B0D1E9BA
:100BE0000001CDE90A0104F01DF802460B98C00F80
:100BF00001D02D2007E02068810701D52B2002E0DD
:100C0000202101EAC000032A099001D0072A05DB50
:100C100003464146204600F02FFB0BE1207880067A
:100C200001D5E06900E00620B8F1650F814606D0E5
:100C3000B8F1660F18D0B8F1670F70D131E000201D
:100C4000B9F1110F009001DB112301E009F101035B
:100C50000AAA01A90CA8FFF7E2FEDDE90C70002644
:100C600009F10105834647E001204B4600904FF013
:100C700000470AAA01A90CA8FFF7D1FEDDE90DB0D3
:100C80000C995D46002610B909F101000D18B9EB69
:100C9000050003D4C0F1FF3609F10105A5EB0900F9
:100CA0002BE0B9F1010F01DA4FF001090020B9F191
:100CB000110F0090484601DD112300E003460AAA07
:100CC00001A90CA8FFF7ABFEDDE90C704D4600262C
:100CD0008346207800070AD4AB4500DA5D4601A8B8
:100CE000012D04DD411911F8011C302907D04F45B1
:100CF00002DA17F1040F04DA012082460FE06D1EBC
:100D0000EEE7002F02DCED1B3E4403E0781CA84216
:100D100000DD7D1CB81B00F1010A4FF00047207870
:100D2000000703D4AA4501DB4FF0FF3A0021B7F1D9
:100D3000004F0DF143088DF8431024D002202B23DF
:100D4000002F01DA7F422D230A21021EA0F10100AB
:100D500000DC5FB197FBF1FC97FBF1F201FB1C7C1F
:100D600017460CF1300C08F801CDEEE7A8F10100B0
:100D700003702188090501D5452100E06521A0F116
:100D8000010800F8011C09980FA9A1EB0807FF1D35
:100D900000B10120411901EBEA70A1693844081A39
:100DA000401EA0612078C00602D42046FFF767FDF0
:100DB000099828B1D4E901219047206A401C20629B
:100DC0002078C00622D52046FFF759FD1EE0002EF0
:100DD00004DBB34502DD01A8805D00E03020D4E9EA
:100DE00001219047206A401C2062761CAAF1010074
:100DF0005FEA000A0AD100F0DBF9C0680168405CD4
:100E0000D4E901219047206A401C2062281EA5F1E8
:100E10000105DCDC07E0D4E9012118F8010B90475B
:100E2000206A401C2062381EA7F10107F3DC20462F
:100E3000FFF73BFD032011B041E6000001694A1CA9
:100E400002610878704700B58FB0CDE9013100210B
:100E5000059105497944CDE9031011466846FFF72D
:100E6000F1FA0FB000BD0000E5FFFFFF0A6802F8CD
:100E7000010B0A607047D1E900239A4202D2531C49
:100E80000B601070704700002DE9FF5F15468A4621
:100E90000446DFF8AC80F8440027D8E900103E464D
:100EA000CDE9001010E03AF816106A4602A800F0EA
:100EB00011FB411C07D02178890603D5E269391856
:100EC00091420DD80744761C2078800602D5E0694F
:100ED000B84205DDAE42E6DB3AF816000028E2D162
:100EE000A069C01BA0612046FFF7C9FCD8E900102B
:100EF000CDE90010002017E03AF818106A4602A861
:100F000000F0E8FAB0F1FF3F81460BD000250DF16B
:100F1000080B05E0D4E901211BF8050090476D1C82
:100F20004D45F7D308F10100B0428046E4DB206A6A
:100F3000384420622046FFF7B8FCBDE8FF9F000060
:100F4000F65200002DE9F0418046D21D22F0070242
:100F50000025D2E90002F52915A614D0011E72F170
:100F6000000106DA0023D0EB030063EB020211A6B6
:100F700008E0D8F800108B0701D50FA602E049075A
:100F800001D50EA601251146002408F1240704E02E
:100F900000F02CF930323A55641C50EA0102F7D1C6
:100FA0002B46324621464046BDE8F041FFF7C9BC1A
:100FB000000000002D0000002B00000020000000B9
:100FC00030B4002100F1240408E002F00705D20843
:100FD000303542EA4372DB086554491C52EA030586
:100FE000F3D10468002310A2250707D5A40600D476
:100FF00021B1C46901230DA2641EC46130BCFFF796
:10100000A0BC10B5044621461068FFF768FC0246F4
:101010002046BDE810400023D2E7D21D22F0070190
:10102000D1E90023CCE70000000000003000000000
:10103000F0B40D460188090502D5214C7C4402E03C
:101040001F4C7C440E34002100F1240608E002F01D
:101050000F071209E75D42EA03721B097754491C26
:1010600052EA0307F3D102780023120704D5702D4A
:1010700006D009B1022311342246F0BCFFF761BC4F
:1010800001231034F8E770B504460D462146106878
:10109000FFF725FC024629462046BDE870400023A4
:1010A000C6E7D21D22F00703D3E90023C0E7036897
:1010B000126843F0200303600823C3610023B7E7ED
:1010C000585100002DE9F04791460F4680460446EE
:1010D000002614F8015B2DB100F062F80068405D55
:1010E000C007F6D12B2D02D02D2D18D0641E4A46F4
:1010F0003946204600F02CF927B13968A14201D1C8
:10110000C7F800804FF0020471050BD5404200285B
:1011100003DDFFF757FB0460A007BDE8F08746F446
:101120008066E4E70028F8DAFFF74CFB04606FF014
:101130000040F2E710B5203AC0F00B80B1E818503B
:10114000203AA0E81850B1E81850A0E81850BFF4B1
:10115000F5AF5FEA027C24BFB1E81850A0E8185050
:1011600044BF18C918C0BDE810405FEA827C24BFA4
:1011700051F8043B40F8043B08BF7047D20728BF32
:1011800031F8023B48BF11F8012B28BF20F8023B81
:1011900048BF00F8012B704700487047D800002076
:1011A00010B500F005F8001D10BD00BF093F00009C
:1011B00000487047F8000020034640688C4600282D
:1011C00018BF88423CBF03464068F8D318681844EB
:1011D000884207D00CF1030020F00700001D411ADF
:1011E000521A0146081D0A60FFF799B830B5B0F1F0
:1011F0000A024FEA900E71F100034EEA817EB0EBD5
:101200000E0061EB91014FEA101E4EEA017E10EBD9
:101210000E0041EB11114FEA102E4EEA016E10EB59
:101220000E0041EB11214FEA104E4EEA014E10EB39
:101230000E0041EB1141401841F100014FEAD0008E
:1012400040EA41704FEAD10110EB80054FEA81047A
:1012500044EA907444EB01046D1944EB0404521BFE
:10126000A3414FF0000348BF0A3200D530BD401CF7
:1012700041F1000130BD00002DE9F0411F46044658
:1012800003260168072A01F4006004DB08B116A5F3
:1012900005E016A503E008B115A500E015A521F0AD
:1012A00010002060A069C01EA0610FB1401EA061A7
:1012B0002046FFF7E4FA4FB1D4E9012138469047C0
:1012C000206A401C2062C01C206206E0206AFAE707
:1012D000D4E9012115F8010B9047761EF8D220467B
:1012E000FFF7E3FABDE8F0814E414E006E616E00FB
:1012F000494E4600696E660010B5436913B1AFF3FD
:10130000008001E0FFF7F4FA012010BD127800F12F
:1013100024010A7000224A700122EDE711684FF0A3
:10132000FF32E9E710B5436913B1AFF3008001E084
:10133000FFF7AAFD012010BD128800F1240182846C
:101340000022C2840122EDE711684FF0FF32E9E785
:101350002DE9F05F824615468B4600270AF101040D
:10136000B9460078302801D09DB113E014F8010B84
:101370000127782803D0582801D045B10AE00DB1E3
:10138000102D07D1002714F8010B102502E00825C5
:1013900000E00A250026B0460EE005FB080005FB2C
:1013A00006F101271FFA80F801EB1046B6F5803FE1
:1013B00000D3B94614F8010B294600F0D8F80028EC
:1013C000EBDABBF1000F05D00FB1641E00E054460C
:1013D000CBF80040B9F1000F06D0FFF7F3F9022176
:1013E0000160C81EBDE8F09F48EA0640FAE7000029
:1013F0002DE9F047814616468AB0354878440DC835
:101400008DE80D0032487844801C03AC0DC884E898
:101410000D0041F69B300844372190FBF1F290FB20
:10142000F1F5A5F1800501FB12041B3C02D56442D5
:10143000012000E00020DFF898A080460027FA4451
:10144000AAF1BE0A0EE0E0070AD03246684607EB72
:10145000470101230AEB810100F0C5FB8DE807007D
:1014600064107F1C002CEED1194F7F44AE3F19E071
:10147000E80715D007EB04100DF1180A90E80E00EC
:101480008AE80E00C068F04201D1981908903246EF
:10149000012306A903A800F0A6FB03AB83E807001D
:1014A0006D10641C002DE3D14FF0010332466946F4
:1014B000B8F1000F03A802D000F080FB01E000F0BB
:1014C00092FBC9E90001C9F808200AB0BDE8F0871D
:1014D0003C4E000070B516460C460546FFF760FE10
:1014E000036893F80101012806D0FF2C0FD8185D7E
:1014F00068B101202C7070BDD3F807013246214637
:1015000003F2071303442846BDE8704018474FF024
:10151000FF3070BD10B500F047F8BDE8104000F096
:101520003DB870477546FFF737FEAE460500694681
:10153000534620F00700854618B020B5FEF7AEFEF2
:10154000BDE820404FF000064FF000074FF00008C4
:101550004FF0000B21F00701AC46ACE8C009ACE845
:10156000C009ACE8C009ACE8C0098D4670473A280C
:1015700000D2303820F02002412A01D3A2F13700F6
:10158000884201D34FF0FF30704710B50446AFF3E7
:1015900000802046BDE81040FEF76BBE002801D059
:1015A00000F06AB87047000010B5012805D000218E
:1015B00003A000F067F8012010BD09A1F8E70000C2
:1015C00053494752544D454D3A204F7574206F662C
:1015D0002068656170206D656D6F72790000000094
:1015E0003A2048656170206D656D6F727920636F78
:1015F00072727570746564004FF0013C50F8042BF2
:1016000051F8043B9A4221D1A2EB0C03934313EA15
:10161000CC1317D150F8042B51F8043B9A4215D142
:10162000A2EB0C03934313EACC130BD150F8042B19
:1016300051F8043B9A4209D1A2EB0C03934313EAFD
:10164000CC13DBD04FF00000704700BFD01A01BAB6
:10165000B1FA81F101F0180122FA01F0CB40C1F199
:101660002001DBB2C0B2C01A2CFA01F3D11A9143A7
:1016700011EAC311E6D1704701491820ABBEFEE75D
:101680002600020070B505460C460A2000E06D1CDD
:1016900000F011F835B128780028F8D102E0641C78
:1016A00000F009F814B120780028F8D1BDE87040A6
:1016B0000A20AFF3008008B569468DF800000320CA
:1016C000ABBE08BD5FEA400C08BF91F0000F4FEAC7
:1016D0008C234FEAC12243EA51514FEA1C5018BFF4
:1016E00000F5F0404FEA300018BF41F000415FEADA
:1016F0006C5C00F02980BCF1FF3F08BF40F08040E7
:101700007047130C06BF12044FF0100C4FF0000C82
:10171000130E04BF12020CF1080C130F04BF1201C8
:101720000CF1040C930F04BF92000CF1020CD30FC8
:1017300004BF52000CF1010C11464FF00002A0F161
:101740001F00A0EB0C00704711F0004F08BF70475E
:1017500031F000413FF4D5AF0B0C06BF09044FF048
:10176000100C4FF0000C0B0E04BF09020CF1080C1A
:101770000B0F04BF09010CF1040C8B0F04BF89008F
:101780000CF1020CCB0F04BF49000CF1010CCCF1A1
:101790002003A0EB0C0022FA03F302FA0CF241EA58
:1017A000030100F10100704720F07F4C80EA030044
:1017B00023F07F47ACEB070303F57C5300F00040B8
:1017C00003F1FF032DE980494FEA154B09B44FEAB5
:1017D000144325EA0B4E24EA03480FF2042606EBD5
:1017E000132749083E785FEA320203FB0667C7F514
:1017F000000707FB06F64FEA54374FEAD64606F1D4
:10180000020607FB066CCCF1005C4FEA1C472CEA91
:10181000074C07FB06F40CFB06F504EB15464FEAF4
:10182000961634BF00204FF000404FEAD13706FB38
:1018300007FC4FEA1C4C0CFB0BF7D21B03FB0CF70D
:1018400061EB07010CFB0EF7B0EB074072EB1742A0
:101850000CFB08F734BFA2EB0742B2EB074261EB87
:1018600017414FEA0C444FEA910706FB07FC4FEA89
:101870001C4C0CFB0BF7B0EBC74072EB573203FB71
:101880000CF734BFA2EBC742B2EBC74261EB573152
:101890000CFB0EF7B0EBC70072EB57720CFB08F7AE
:1018A00034BFA2EBC702B2EBC70261EB5771039FD3
:1018B0004FEA816141EA921104EBCC044FEAD1373F
:1018C0004FEA826206FB07FC42EA90124FEA806010
:1018D0004FEA1C4C0CFB0BF7D21B03FB0CF761EB24
:1018E00007010CFB0EF7B0EB074072EB17420CFB45
:1018F00008F734BFA2EB0742B2EB074261EB174196
:101900004FEA8C554FEA910704EB9C2406FB07FC39
:101910004FEA1C4C0CFB0BF7B0EBC74072EB573295
:1019200003FB0CF734BFA2EBC742B2EBC74261EB3B
:1019300057310CFB0EF7B0EBC70072EB57720CFB84
:1019400008F734BFA2EBC702B2EBC70261EB5771D5
:1019500015EB4C254FEA816141EA92114FEA826210
:101960004FEAD13742EA901206FB07FC44F100042B
:101970004FEA80604FEA1C4C0CFB0BF7D21B03FBB9
:101980000CF761EB07010CFB0EF7B0EB074072EBB5
:1019900017420CFB08F734BFA2EB0742B2EB074239
:1019A00061EB174115EB1C154FEA813141EA924179
:1019B0004FEA823242EA90424FEA80304FEA0C7698
:1019C00044F1000448EA03434EEA0B484FF0000E8E
:1019D000B2EB080C71EB030724BF624639464EEBAD
:1019E0000E0E4FF0000B0018524149414BEB0B0B10
:1019F000B2EB080C71EB03077BF1000B24BF6246CE
:101A000039464EEB0E0E4FF0000B00185241494183
:101A10004BEB0B0BB2EB080C71EB03077BF1000BEC
:101A200024BF624639464EEB0E0E51EA020718BF3C
:101A300046F0010616EB0E7655F1000254F1000156
:101A400003D5BDE88901BDE80088BDE88901BDE88E
:101A50000048B619524141EB0101A3F1010370475F
:101A600080807F7E7D7C7B7A7978777676757473DB
:101A7000727171706F6E6E6D6C6C6B6A6A6968689A
:101A8000676666656464636362616160605F5F5E30
:101A90005E5D5D5C5C5B5B5A5A59595858575756A6
:101AA000565555555454535352525251515050500B
:101AB0004F4F4F4E4E4D4D4D4C4C4C4B4B4B4A4A5D
:101AC0004A494949484848474747474646464545A1
:101AD00045444444444343434342424242414141DA
:101AE000002B9C4630D477002BD01CB54FEA37072B
:101AF00003B44FF010004FF01001BAF1000F06D000
:101B0000BCF1000FDCBF40F0080040F008014FF0CE
:101B100000000FBCBDE810400BF1010BBBF1010F41
:101B200008BF5FEA170722BF12F1010211F101019C
:101B30004FF0004143F1000300F0004043EA000091
:101B40007047F9D35708D0E746EA064613F1400F2D
:101B50004FEA16461FDD13F1200FDFBF16430A467A
:101B6000002120335B42BED0C3F1200746EA06467F
:101B700002FA07F74FEA164646EA0706C3F12007BE
:101B800022FA03F201FA07F721FA03F14FF00003FA
:101B900042EA0702A7E746EA020646EA06464FEA95
:101BA000164646EA0106BCBF46EA0646360C4FF02A
:101BB00000034FF000024FF0000194E72DE9804C44
:101BC0009A46934670B491E8380007C831EA400C51
:101BD00048BF34EA430C03D5FFF7E6FDFFF780FF6B
:101BE000F0BCBDE8008C2DE9804C9A46934670B459
:101BF00091E8380007C810F0804F08BF13F0804FFD
:101C000003D100F005F8FFF76BFFF0BCBDE8008CD6
:101C100020F07F4780EA030023F07F4C07EB0C03A2
:101C2000A3F57C5300F00040A3F1FE0392F0000FF7
:101C300000F0B38095F0000F00F077802DE90149A6
:101C40004FEA11404FEA144621EA004800FB06FC27
:101C500024EA064708FB06F607FB08F800FB07F72F
:101C600018EB06484CEB164C4FEA124B18EB0748A2
:101C70004FEA15464CEB174022EA0B4E0BFB06FCD5
:101C800025EA06470EFB06F607FB0EFE0BFB07F7E1
:101C90001EEB064E4CEB164C4FF000061EEB074EAB
:101CA0004CEB174B18EB0B0840F1000018EB0E0B38
:101CB00058EB000840F100008F1A4FF000013CBFC4
:101CC000C943661B14BFB5EB040C00213CBFC943DC
:101CD000F61B4FEA17444EEA8E0E27EA04454FEAF8
:101CE0001C4704FB07622CEA074C05FB07F70CFBBB
:101CF00005F604FB0CFC16EB074642EB174216EB0D
:101D00000C4642EB1C421BEB060658EB020241411B
:101D100046EA9E0601D5BDE80189B619524141EB5C
:101D20000101A3F10103BDE801894FEA14454FEA1F
:101D3000114724EA054621EA074C05FB07F406FB98
:101D400007F70CFB06F105FB0CFC11EB074144EB1C
:101D500017444FEA124711EB0C4144EB1C4422EAB2
:101D6000074C05FB07F206FB07F70CFB06F605FB25
:101D70000CFC16EB074642EB174216EB0C4642EB07
:101D80001C456A1854F1000148BF7047B61952410A
:101D900041EB0101A3F10103704795F0000F37D02B
:101DA0004FEA11424FEA144721EA024624EA074C5F
:101DB00002FB07F106FB07F70CFB06F402FB0CFC29
:101DC00014EB074441EB17414FEA154714EB0C4461
:101DD00041EB1C4125EA074C02FB07F506FB07F720
:101DE0000CFB06F602FB0CFC16EB074645EB174511
:101DF00016EB0C4645EB1C42121951F1000148BF8D
:101E00007047B619524141EB0101A3F1010370473C
:101E10004FEA14454FEA114724EA054621EA074CE8
:101E200005FB07F106FB07F70CFB06F24FF0000677
:101E300005FB0CFC12EB074241EB174112EB0C4285
:101E400051EB1C4148BF7047921841EB0101A3F1CF
:101E50000103704721B1826842F00102826003E011
:101E6000826822F0010282607047000010B50446CB
:101E70001248844208D10121401502F0F7F80021F0
:101E8000601502F0F3F817E00D48844208D10121F3
:101E9000001502F0EBF80021201502F0E7F80BE046
:101EA0000848844208D10121C80302F0DFF800216C
:101EB0004FF4004002F0DAF810BD000000240140A9
:101EC00000280140003C0140014600208A6802F0E1
:101ED00004020AB1012000E0002070470146C86CEE
:101EE00080B270470246002013680B400BB10120FE
:101EF00000E000207047014600208A6802F00802D6
:101F00000AB1012000E000207047000030B5024611
:101F10000020002350680F4C20400D790C6844EAE3
:101F200005242043506090680B4C2040D1E90254B6
:101F30002C434D7944EA450420439060D06A20F454
:101F400070000C7C641EE4B2234340EA0350D0626C
:101F500030BD0000FFFEF0FFFDF7F1FFF0B50446D5
:101F60000D4600200021092D11DDE068A5F10A06CB
:101F700006EB4607072606FA07F18843A5F10A068D
:101F800006EB460603FA06F10843E0600CE0206920
:101F900005EB4507072606FA07F1884305EB4506DA
:101FA00003FA06F108432061072A0FDA606B561E18
:101FB00006EB86071F2606FA07F18843561E06EB36
:101FC000860605FA06F10843606322E00D2A0FDA5F
:101FD000206BD61F06EB86071F2606FA07F18843FB
:101FE000D61F06EB860605FA06F10843206310E0CB
:101FF000E06AA2F10D0606EB86071F2606FA07F136
:102000008843A2F10D0606EB860605FA06F10843A1
:10201000E062F0BD816841F008018160704721B144
:10202000826842F4A002826003E0826822F4A00287
:1020300082607047816841F0040181607047000050
:1020400030B10749096841F40001054A116005E013
:102050000349096821F40001014A1160704700003A
:102060000824014070B504460D4607230122294685
:102070002046FFF773FF01212046FFF7D0FF00BF86
:1020800002212046FFF72EFF0028F9D02046FFF757
:1020900025FF70BD2DE9F047074688461446002508
:1020A000002610E041463846FFF7DCFF824603F089
:1020B000CBFE8146294603F06BFD0546052000F066
:1020C00019FA701CC6B2A642ECDB204603F0BCFE37
:1020D00082465146284603F0BDFD814603F07CFE52
:1020E00080B2BDE8F08700002DE9FC5F0446894618
:1020F0009246524649462046FFF7CCFF0190019890
:1021000003F0A2FE4FF08B41009003F0A3FD834645
:1021100003F012FD07464FF06632044B03F032FA2B
:10212000054602F0DDFFBDE8FC9F000066660A4040
:1021300030B585B004460D462648844204D10121BD
:10214000401501F083FF0BE02348844204D10121B4
:10215000001501F07BFF03E00121C80301F076FFC9
:102160004FF4004001F056FF2046FFF77FFE0020AD
:102170008DF8050003904FF460200290002000903D
:1021800001208DF8100000208DF8040069462046DB
:10219000FFF7BCFE0F48844203D115B10120FFF7C1
:1021A0004FFF01212046FFF755FE2046FFF732FF83
:1021B00000BF2046FFF79FFE0028FAD12046FFF718
:1021C00039FF00BF2046FFF77FFE0028FAD105B097
:1021D00030BD00000024014000280140F0B589B066
:1021E00006460F46154600240B208DF804008DF896
:1021F000057000BF05E0315D01AAA01C1154601CF0
:10220000C4B2AC42F7DBA81CC2B201A9012002F0A3
:1022100047F9002405E001A9A01C085C3055601CAA
:10222000C4B2AC42F7DB09B0F0BD00002DE9F04FBD
:1022300087B00020069005900490012000F0B2F8CD
:1022400004AA05A906A800F069F8BDF9180003F072
:10225000E3FD804603F070FC06462B4A2B4B03F04F
:1022600091F9044602F03CFF29490860BDF91400C9
:1022700003F0D2FD804603F05FFC0646224A234B62
:1022800003F080F9044602F02BFF21494860BDF9B4
:10229000100003F0C1FD804603F04EFC06461A4ACA
:1022A0001A4B03F06FF9044602F01AFF18498860D0
:1022B000BDF9100003F04EF980468946BDF91810AB
:1022C0004943BDF9142002FB021003F043F9CDE9A4
:1022D000000102F0B3FE824642464B4602F0E2FFA6
:1022E000064602F01BFD04460A4A0B4B03F04AF96E
:1022F000CDE9020102F0F4FE0549C860002000F0BB
:1023000051F807B0BDE8F08FFCA9F1D24D62503F03
:10231000340000207D96E7C1DDA54C407CB5064623
:102320000C46154600200090019006220E216846BA
:10233000FFF754FF9DF800009DF8011000EB01200D
:1023400000B230809DF802009DF8031000EB0120E0
:1023500000B220809DF804009DF8051000EB0120DC
:1023600000B228807CBD000038B500200090002419
:10237000012300220A49104602F038F804460122DF
:1023800000216846FFF72AFF012202216846FFF775
:1023900025FF9DF80000F22800D00024204638BD1B
:1023A00000093D0038B504460020009000250122B8
:1023B0002D216846FFF712FF9DF8000020F003056D
:1023C00045EA4400C5B201222D21284600F001F85B
:1023D00038BDF8B504460D461646002000900A2088
:1023E0008DF800008DF80150E0B28DF80200201247
:1023F0008DF80300B01CC2B26946012002F070F8EB
:10240000F8BD000008B50121082001F01FFE0121E0
:10241000084601F01BFE0121094800F025FD1020AF
:102420008DF803000820ADF8000003208DF80200AD
:102430006946044800F08DFC002000F005F808BD56
:1024400000023000000C014010B50446224608216D
:10245000024800F05EFD0248047010BD000C01400F
:102460001800002002A1114802F088FB00BFFEE71F
:102470000D0A2A2A2A2A2A2A2A2A2A2A2A2A2A2AF9
:102480002A2A2A2A2A4275734661756C745F48614C
:102490006E646C65722A2A2A2A2A2A2A2A2A2A2A59
:1024A0002A2A2A2A2A2A2A2A0D0A0000003801404C
:1024B00070470000002120F07F400D4A127842430F
:1024C0004FF0E0235A6100229A6101221A6100BF95
:1024D0004FF0E022116901F001021AB101F48032DB
:1024E000002AF5D000224FF0E0231A619A6170476C
:1024F00014000020002100B9704720F07F400E4AF0
:10250000128842434FF0E0235A6100229A6101226F
:102510001A6100BF4FF0E022116901F001021AB107
:1025200001F48032002AF5D000224FF0E0231A6136
:102530009A6100BFE0E70000160000204FF0E020A5
:10254000006920F004004FF0E021086109200749EC
:1025500008700846007800EB4001C1EBC0104FF650
:10256000FF7101EAC0000249088070471400002092
:102570001600002010B50446207B012802D12068F7
:10258000FDF7CDFE002020606060A060207310BDCC
:1025900070B504460E460025206898B901202073C6
:1025A0003046FDF78DFE20602068E0B100206060BD
:1025B000A66003E00020216848556D1CA068A84271
:1025C000F8D810E00220207303E00020216848556D
:1025D0006D1CA068A842F8D800206060A068B042D6
:1025E00001D20020206070BD2DE9F04780460E46E4
:1025F00091461D46089C70190DB1062100E002218C
:102600004718791D2046FFF7C3FF206810B9012045
:10261000BDE8F087B0216268501C6060206881547A
:10262000A1888AB23946206802F0E5FA6168084458
:10263000606031126268501C60602068815462687A
:10264000501C606020688654D4E900128818324615
:102650004146FEF721F860683044606015B3290EEA
:102660006268501C606020688154C5F3074162684D
:10267000501C606020688154C5F307216268501CBB
:102680006060206881546268501C606020688554D6
:10269000D4E9001288182A464946FDF7FDFF606814
:1026A000284460600020B3E72DE9F0478046894662
:1026B00017461C464046FDF7C4FFC5B24846FDF725
:1026C000C0FFC6B238212046FFF762FF206810B96C
:1026D0000120BDE8F0871020216808706068401C68
:1026E000606005F10D003044216848706068401C4E
:1026F000606000202168887003202168C8706068CD
:10270000801C60602168081D032221A1FDF775FF70
:102710006068C01C606001202168C8716068401C4E
:1027200060604020216808726068401C6060380A60
:102730002168487221688F726068801C6060002088
:102740002168C87221680D736068801C6060216810
:1027500001F10D002A464146FDF74FFF606828440D
:102760006060002105F10D0022681154401C2268B0
:1027700016546068801C606021680F314819324629
:102780004946FDF73AFF6068304460600020A0E7EA
:10279000454450002DE9F84F81460D4617461E4628
:1027A0000A9C002000904846FDF74BFF00F0FF0810
:1027B000022E03D117B90120BDE8F88F022E09D1EE
:1027C0003846FDF73EFF00F10F0A51462046FFF75D
:1027D000DFFE04E005F118012046FFF7D9FE20686E
:1027E00008B90220E8E780216268501C6060206818
:1027F0008154B9F1000F3ED0022E06D13846FDF7C4
:1028000020FF0C302844009003E005F1080040440C
:102810000090A1888AB22068009902F0ECF9616802
:1028200008446060C0216268501C60602068815468
:1028300000216268501C6060206881546168481CF7
:102840006060206800F80180D4E9001288184246D0
:102850004946FDF7D2FE60684044606055216268D9
:10286000501C606020688154AA216268501C60601E
:102870002068815425E0022E06D13846FDF7E1FE9E
:102880000A302844009001E0A81D0090A1888AB277
:102890002068009902F0AFF9616808446060402147
:1028A0006268501C60602068815455216268501C29
:1028B000606020688154AA216268501C60602068B2
:1028C00081546168481C606020684654022E3AD1E9
:1028D0003846FDF7B6FE00F0FF0A4FF0000B00216E
:1028E0006268501C6060206881546168481C6060A8
:1028F000206800F801A00AE017F80B106268501C6D
:102900006060206881540BF1010000F0FF0BD3459B
:10291000F2DB290E6268501C606020688154C5F3A8
:1029200007416268501C606020688154C5F307212C
:102930006268501C6060206881546268501C60604E
:10294000206885540BE0C5F307216268501C606065
:10295000206881546268501C6060206885540020A3
:102960002AE72DE9F84305460E4617469846DDF856
:1029700020900020009000242046641C285CA028A1
:1029800002D00120BDE8F883A2B26946284601F0D2
:10299000ECFB0446601C08B90220F3E7601C285CCD
:1029A000295D40EA01203880A41C3988481CFDF7C5
:1029B00087FC3060306808B90320E3E73A88511C8F
:1029C0003068FDF7AEFE3A8829193068FDF764FEDD
:1029D00038880444285D0106601C285C41EA0041F7
:1029E000A01C285C41EA0020E11C695C0843C9F88E
:1029F0000000241DD9F80010481CFDF761FCC8F840
:102A00000000D8F8000020B93068FDF788FC0420E9
:102A1000B8E7D9F80020511CD8F80000FDF781FE76
:102A20002919D9F80020D8F80000FDF735FED9F8AB
:102A3000000004440020A5E70146C878704701461D
:102A40000878704710B580210348FDF76AFE002022
:102A50000249088010BD0000560000203000002010
:102A600070B50546002400BF00F058F980B90DA1EB
:102A70000E48FDF7D4FD044654B13A212046FDF737
:102A8000B2FD044614B1641C204670BD0020FCE772
:102A90000520FFF72FFD281EA5F101018DB2E3D11E
:102AA00000BFF2E74950442C00000000560000200F
:102AB00008B50121102001F0C9FA10208DF803009B
:102AC0008002ADF8000003208DF80200694633480B
:102AD00000F03FF900224FF48041304800F019FA2D
:102AE000FA20FFF707FD012291032C4800F011FAAC
:102AF0004FF4FA70FFF7FEFCFFF7A4FF28A12A4865
:102B000002F03CF803E04FF4FA70FFF7F3FC27A162
:102B100027A000F0B5F80028F5D127A1224802F03F
:102B20002DF803E04FF4FA70FFF7E4FC1FA125A095
:102B300000F0A6F80028F5D126A11B4802F01EF8E7
:102B400003E04FF4FA70FFF7D5FC18A125A000F0C0
:102B500097F80028F5D127A1134802F00FF803E0F9
:102B60004FF4FA70FFF7C6FC25A127A000F088F803
:102B70000028F5D12CA10C4802F000F803E04FF436
:102B8000FA70FFF7B7FC2CA12DA000F079F800280F
:102B9000F5D135A1044801F0F1FF08BD0010014056
:102BA000312E2041540D0A00003801404F4B0000E7
:102BB00041540D0A00000000322E2043574D4F446F
:102BC000450D0A0041542B43574D4F44453D310DAF
:102BD0000A000000332E2041542B435744484350F1
:102BE0000D0A000041542B4357444843503D312CBB
:102BF000310D0A00342E2043574A41500D0A00007F
:102C0000474F54204950000041542B43574A4150EC
:102C10003D226F6E656E6574222C2231323334355D
:102C2000363738220D0A0000352E204349505354C0
:102C30004152540D0A000000434F4E4E454354008C
:102C400041542B43495053544152543D2254435014
:102C5000222C223138332E3233302E34302E333979
:102C6000222C3837360D0A00362E20455350383284
:102C7000363620496E6974204F4B0D0A0000000063
:102C80002DE9F04104460D46C8262046FDF7D9FC43
:102C900087B23A4621460D4801F094FF0FE000F05C
:102CA0003DF848B929460A48FDF7B9FC20B1FFF7BD
:102CB000C9FE0020BDE8F0810A20FFF71BFC301E92
:102CC000A6F10101CEB2EAD10120F3E700440040B1
:102CD0005600002030B589B004460D46FFF7B2FE1D
:102CE0002A4608A101A8FDF75BFB0AA101A8FFF78E
:102CF000C7FF20B92A462146074801F063FF09B003
:102D000030BD000041542B43495053454E443D25AE
:102D1000640D0A003E000000004400400A4800889C
:102D200008B9012070470848008808490988884286
:102D300003D1002004490880F4E7034800880349D0
:102D400008800120EEE70000300000203200002063
:102D500070472DE9F041024600250026002000239F
:102D60000024002791F803C00CF00F0591F803C070
:102D70000CF0100CBCF1000F03D091F802C04CEA2B
:102D8000050591F800C0BCF1000F31D01468002097
:102D90002BE04FF0010C0CFA00F3B1F800C00CEA84
:102DA00003069E4220D183004FF00F0C0CFA03F76C
:102DB000BC4305FA03FC4CEA040491F803C0BCF1DF
:102DC000280F06D14FF0010C0CFA00FCC2F814C019
:102DD0000AE091F803C0BCF1480F05D14FF0010C97
:102DE0000CFA00FCC2F810C0401C0828D1D31460B3
:102DF000B1F800C0BCF1FF0F34DD546800202EE0B4
:102E000000F1080C4FF0010808FA0CF3B1F800C00B
:102E10000CEA03069E4221D183004FF00F0C0CFAFE
:102E200003F7BC4305FA03FC4CEA040491F803C021
:102E3000BCF1280F05D100F1080C08FA0CF8C2F813
:102E4000148091F803C0BCF1480F07D100F1080CC1
:102E50004FF0010808FA0CF8C2F81080401C08284E
:102E6000CED35460BDE8F081F0B50A4600230024BB
:102E70000021002500F00046B6F1004F02D11D4EA2
:102E8000F16901E01B4E7168C0F3034583B200F4A1
:102E90004016B6F5401F08D121F07061154E7668D6
:102EA00026F07066134F7E6012E000F48016B6F5CF
:102EB000801F06D1032606FA05F4A14341F0706194
:102EC00006E0460D360103FA06F6B14341F07061A3
:102ED00022B1460D360103FA06F6314300F00046F2
:102EE000B6F1004F02D1034EF16101E0014E716075
:102EF000F0BD0000000001400246002093680B4036
:102F00000BB1012000E00020704741617047016172
:102F100070470AB1016100E04161704702A11148A8
:102F200001F02CFE00BFFEE70D0A2A2A2A2A2A2ACF
:102F30002A2A2A2A2A2A2A2A2A2A2A2A2A48617254
:102F4000644661756C745F48616E646C65722A2AB0
:102F50002A2A2A2A2A2A2A2A2A2A2A2A2A2A2A2AD1
:102F60002A0D0A000038014010B54FF4A06000F0AF
:102F7000D1FBFFF7E3FA4FF4E13001F051FD4FF4DC
:102F8000E13001F0A5FD00F039FBFFF73BFAFFF758
:102F9000EBF900F09BF800F0B5FA00F0EDF902A1B2
:102FA000064801F0EBFD10BD204861726477617244
:102FB0006520696E6974204F4B0D0A00003801408E
:102FC0002DE9F04104460D46164600276006070E1F
:102FD00000F02CF9384600F0EFF841F2883000F0AC
:102FE00069F910B10120BDE8F081284600F0E4F84D
:102FF00041F2883000F05EF908B10120F3E700F0FB
:1030000015F9791CC8B200F0D7F841F2883000F009
:1030100051F908B10120E6E700F09EF8307000F0A9
:1030200079F800F025F90020DDE72DE9F0410546AB
:103030000E46144600276806070E00F0F7F83846DB
:1030400000F0BAF841F2883000F034F910B10120F4
:10305000BDE8F081304600F0AFF841F2883000F072
:1030600029F908B10120F3E74CB1207800F0A4F869
:1030700041F2883000F01EF908B10120E8E700F0C5
:10308000F7F80020E4E7000010B54FF480610D4828
:10309000FFF73BFF4FF400610A48FFF736FF0A498C
:1030A0000888FFF707FA4FF480610648FFF72FFF03
:1030B00005490888FFF7FEF94FF480610148FFF7E2
:1030C00024FF10BD000C01402800002008B501219C
:1030D000082000F0BBFF14208DF803004FF440607F
:1030E000ADF8000003208DF8020069460848FFF79C
:1030F00030FE052000F094F84FF400610448FFF71B
:1031000006FF4FF480610248FFF701FF08BD000091
:10311000000C014010B54FF480610D48FFF7F5FE3B
:103120004FF400610A48FFF7F2FE0A490888FFF7EA
:10313000C1F94FF480610648FFF7E9FE05490888A8
:10314000FFF7B8F94FF480610148FFF7DEFE10BDCC
:10315000000C01402800002070B5002500244FF429
:1031600000611348FFF7D3FE1DE04FF48061104863
:10317000FFF7CBFE0F490888FFF79CF94FF48061F9
:103180000B48FFF7C4FE6006040E4FF400610848C8
:10319000FFF7B2FE08B1601CC4B206490888FFF709
:1031A00089F9681CC5B2082DDFDB204670BD000020
:1031B000000C01402800002070B5044600254FF4A3
:1031C00080611548FFF7A1FE23E004F0800028B1DC
:1031D0004FF400611048FFF79AFE04E04FF40061DD
:1031E0000D48FFF792FE6006040E0C490888FFF7B1
:1031F00061F94FF480610848FFF789FE07490888A4
:10320000FFF758F94FF480610348FFF77EFE681C12
:10321000C5B2082DD9DB70BD000C0140280000208C
:1032200001490880704700002800002010B54FF4C5
:1032300000610D48FFF76BFE4FF480610A48FFF70D
:1032400066FE0A490888FFF735F94FF40061064821
:10325000FFF75BFE05490888FFF72CF94FF4806102
:103260000148FFF752FE10BD000C0140280000206D
:1032700010B54FF400610D48FFF747FE4FF4806131
:103280000A48FFF742FE0A490888FFF713F94FF48E
:1032900080610648FFF73BFE4FF400610348FFF7EB
:1032A00036FE03490888FFF705F910BD000C014000
:1032B0002800002010B504464FF400611648FFF7BF
:1032C00026FE16490888FFF7F5F84FF4806112488A
:1032D000FFF71DFE11490888FFF7ECF80EE0601EAD
:1032E000041E07D10EA1134801F048FCFFF7C0FFF0
:1032F000012010BD09490888FFF7DCF84FF4006190
:103300000548FFF7F9FD0028E9D14FF48061024834
:10331000FFF7FBFD0020ECE7000C01402800002037
:103320005761697441636B2054696D654F75740D05
:103330000A0000000038014070B504460D460C48F4
:10334000844207D1A9B2FFF7D7FD08B9012070BDAB
:103350000020FCE70748844207D1A9B2FFF7CCFD63
:1033600008B90120F3E70020F1E70020EFE70000B3
:10337000001001400014014008B50121302000F088
:1033800065FE48208DF803004FF46050ADF8000052
:1033900003208DF8020069460548FFF7DAFC042097
:1033A000ADF8000069460348FFF7D3FC08BD0000F4
:1033B000001001400014014010B54FF4005147487F
:1033C000FFF7BAFF80B14648007840F00100444959
:1033D000087001E0FF2010BD4FF400513F48FFF797
:1033E000ABFF0028F6D10CE03D48007800F001006A
:1033F00038B13B48007800F0FE00394908700020E1
:10340000E9E74FF400613548FFF796FF80B1344893
:10341000007840F002003249087001E0FF20DAE74E
:103420004FF400612D48FFF787FF0028F6D10CE02C
:103430002B48007800F0020038B12948007800F0ED
:10344000FD00274908700320C5E74FF48051234849
:10345000FFF772FF80B12248007840F00400204955
:10346000087001E0FF20B6E74FF480511B48FFF7DA
:1034700063FF0028F6D10CE01948007800F0040042
:1034800038B11748007800F0FB0015490870062095
:10349000A1E704211348FFF74FFF78B110480078E7
:1034A00040F008000E49087001E0FF2093E7042176
:1034B0000C48FFF741FF0028F7D10CE008480078DE
:1034C00000F0080038B10648007800F0F700044921
:1034D000087009207FE7FF207DE700000010014011
:1034E0001D0000200014014010B50A220D210348E0
:1034F000FEF7FAFD0249086010BD000000240140FB
:103500002C00002008B50121102000F09FFD0020B4
:103510008DF803000820ADF8000003208DF80200AC
:1035200069460448FFF715FC00210348FEF700FE3A
:1035300008BD0000001001400024014010B5044601
:10354000012C01D0012000E0002002468021054826
:10355000FFF7DFFC0CB1012000E0002002490870F9
:1035600010BD0000001001401900002010B50446F5
:10357000012C01D0012000E0002002464FF48071B0
:103580000448FFF7C6FC0CB1012000E0002002490E
:10359000487010BD001001401900002010B504460D
:1035A000012C01D0012000E0002002464FF48051A0
:1035B0000448FFF7AEFC0CB1012000E000200249F6
:1035C000887010BD000801401900002010B50446A5
:1035D000012C01D0012000E0002002464FF4806160
:1035E0000448FFF796FC0CB1012000E000200249DE
:1035F000C87010BD001001401900002008B501215D
:10360000142000F023FD10208DF803004FF4B0606B
:10361000ADF8000003208DF8020069460B48FFF763
:1036200098FB4FF48050ADF8000069460848FFF75A
:1036300090FB0020FFF782FF0020FFF797FF00209C
:10364000FFF7ACFF0020FFF7C1FF08BD00100140ED
:103650000008014002A1114801F090FA00BFFEE706
:103660000D0A2A2A2A2A2A2A2A2A2A2A2A2A2A2AF7
:103670002A2A2A2A2A4D656D4D616E6167655F4869
:10368000616E646C65722A2A2A2A2A2A2A2A2A2A20
:103690002A2A2A2A2A2A2A2A2A0D0A000038014020
:1036A0007047000070B5002100230F22C47804B3D6
:1036B000154C246804F4E064C4F5E064210AC1F107
:1036C0000403CA40447804FA03F184781440214387
:1036D00009010E4C0678A155047804F01F05012459
:1036E000AC4005786D11AD0005F1E025C5F800414D
:1036F00009E0047804F01F050124AC40044D06786D
:10370000761145F8264070BD0CED00E000E400E0C5
:1037100080E100E002490143024A11607047000065
:103720000000FA050CED00E07FB50020009001904C
:1037300002900390012538A33FA242A14C4801F01A
:103740001DFA6B462A0234A13BA0FEF7ADFF00280C
:1037500058D1019A91B20098FFF7BCFAFA20FFF70E
:103760007FF90446002C49D02046FFF768F920284D
:1037700044D12046FFF760F90A2839D2DFE800F08B
:10378000050B10151A1F24292E333AA1384801F0D1
:10379000F5F9002531E03CA1354801F0EFF92CE0C6
:1037A00040A1334801F0EAF927E047A1304801F091
:1037B000E5F922E04CA12E4801F0E0F91DE053A10B
:1037C0002B4801F0DBF918E057A1294801F0D6F9A0
:1037D00013E05DA1264801F0D1F90EE062A1244872
:1037E00001F0CCF909E069A1214801F0C7F904E032
:1037F00070A11F4801F0C2F900BF00BF6846FEF784
:10380000B9FE03E072A11A4801F0B8F915B1012020
:1038100004B070BD0020FBE7306E3367696B674F03
:103820006C6C666D533869716367475843734E58C3
:103830003272733D00000000353837363332313292
:10384000350000004F6E654E65745F4465764C69C7
:103850006E6B0D0A44455649443A2025732C2020AE
:103860002020204150494B45593A2025730D0A002C
:1038700000380140546970733A09C1ACBDD3B3C973
:10388000B9A60D0A000000005741524E3A09C1ACDA
:10389000BDD3CAA7B0DCA3BAD0ADD2E9B4EDCEF3A4
:1038A0000D0A00005741524E3A09C1ACBDD3CAA718
:1038B000B0DCA3BAC9E8B1B84944BCF8C8A8CAA7E3
:1038C000B0DC0D0A000000005741524E3A09C1AC6D
:1038D000BDD3CAA7B0DCA3BAB7FECEF1C6F7CAA75C
:1038E000B0DC0D0A000000005741524E3A09C1AC4D
:1038F000BDD3CAA7B0DCA3BAD3C3BBA74944BCF8A5
:10390000C8A8CAA7B0DC0D0A000000005741524EFB
:103910003A09C1ACBDD3CAA7B0DCA3BACEB4CADAE7
:10392000C8A80D0A000000005741524E3A09C1AC28
:10393000BDD3CAA7B0DCA3BACADAC8A8C2EBCEDE30
:10394000D0A70D0A000000005741524E3A09C1AC01
:10395000BDD3CAA7B0DCA3BABCA4BBEEC2EBCEB445
:10396000B7D6C5E40D0A00005741524E3A09C1AC22
:10397000BDD3CAA7B0DCA3BAB8C3C9E8B1B8D2D125
:10398000B1BBBCA4BBEE0D0A000000005741524E73
:103990003A09C1ACBDD3CAA7B0DCA3BAD6D8B8B473
:1039A000B7A2CBCDC1ACBDD3C7EBC7F3B0FC0D0AFA
:1039B000000000004552523A09C1ACBDD3CAA7B0BD
:1039C000DCA3BACEB4D6AAB4EDCEF30D0A00000043
:1039D0005741524E3A094544505F5061636B6574DC
:1039E000436F6E6E656374204661696C65640D0A91
:1039F000000000007FB50446002000900190029076
:103A000003906AA00088208000200090019002901E
:103A100003906748027867A16846FCF7C1FC6946D5
:103A20002046FCF72DFE00200090019002900390AC
:103A30005F48427863A16846FCF7B2FC69462046BD
:103A4000FCF71EFE00200090019002900390584861
:103A5000827860A16846FCF7A3FC69462046FCF723
:103A60000FFE002000900190029003905048C27811
:103A70005DA16846FCF794FC69462046FCF700FE11
:103A8000002000900190029003905B4802785BA1B7
:103A90006846FCF785FC69462046FCF7F1FD0020EE
:103AA00000900190029003905749086802F044F892
:103AB00005462A460B4655A16846FCF771FC694647
:103AC0002046FCF7DDFD002000900190029003905D
:103AD0005249086802F030F805462A460B4650A1C4
:103AE0006846FCF75DFC69462046FCF7C9FD0020EE
:103AF00000900190029003904849486802F01CF839
:103B000005462A460B464CA16846FCF749FC694627
:103B10002046FCF7B5FD0020009001900290039034
:103B20004A49086802F008F805462A460B4648A1AB
:103B30006846FCF735FC69462046FCF7A1FD0020ED
:103B400000900190029003904049486801F0F4FF12
:103B500005462A460B4641A16846FCF721FC69460A
:103B60002046FCF78DFD002000900190029003900C
:103B70003649886801F0E0FF05462A460B463AA11F
:103B80006846FCF70DFC69462046FCF779FD39A133
:103B90002046FCF775FD2146374800F0EFFF204630
:103BA000FCF74FFDC0B204B070BD00007B00000008
:103BB00019000020225265645F4C6564223A256436
:103BC0002C00000022477265656E5F4C6564223AE6
:103BD00025642C002259656C6C6F775F4C656422FC
:103BE0003A25642C0000000022426C75655F4C652C
:103BF00064223A25642C00001800002022426565EA
:103C000070223A25642C00002C000020224C6967A9
:103C10006874223A25302E32662C000020000020E5
:103C20002254656D7065726174757265223A253033
:103C30002E32662C000000002248756D696469749C
:103C400079223A25302E32662C0000003400002004
:103C5000225867223A25302E32662C0022596722DC
:103C60003A25302E32662C00225A67223A25302E11
:103C7000326600007D000000003801402DE9F0416F
:103C80008CB006460020089009900A900B9007908F
:103C900006900590049080460027002500243046B9
:103CA000FEF7CDFE8046B8F1900F1ED0B8F1A00F00
:103CB00031D104A805AB06AA07A900903046FEF74B
:103CC00050FE074687B908A80090BDF81810DDE936
:103CD00004320798FEF788FC0498009071A17A4896
:103CE000059B079A00F04AFF18E0F07855280DD19F
:103CF0003079AA280AD1707908B174A000E074A0C4
:103D0000024674A1704800F039FF03E075A16E48C7
:103D100000F034FF02E04FF0FF3700BF00BFFEF7B6
:103D200091FE781C10B90CB0BDE8F0813A210598DD
:103D3000FCF759FC0546002D1ED06D1C05E015F85A
:103D4000012B2046641C01A90A542878302802DB84
:103D500028783928F3DD002001A9085501A8FCF7CF
:103D600035FC044665A10598FCF759FC58B1012CB7
:103D700003D10120FFF7E2FB80E0002C7ED1002080
:103D8000FFF7DCFB7AE05FA10598FCF748FC58B12F
:103D9000012C03D10120FFF7E9FB6FE0002C6DD16E
:103DA0000020FFF7E3FB69E059A10598FCF737FC19
:103DB00018B3012C15D10120FEF746FBFA20FEF7BF
:103DC00099FB0020FEF740FBFA20FEF793FB012051
:103DD000FEF73AFBFA20FEF78DFB0020FEF734FBDE
:103DE0004CE0002C4AD10120FEF72EFBFA20FEF712
:103DF00081FB0020FEF728FB40E047A10598FCF777
:103E00000EFC50B1012C03D10120FFF7C7FB35E0B8
:103E100034BB0020FFF7C2FB30E042A10598FCF75D
:103E2000FEFB50B1012C03D10120FFF7CFFB25E0B1
:103E3000B4B90020FFF7CAFB20E03CA10598FCF7CD
:103E4000EEFB68B1012C0CD10120FFF777FB0120BC
:103E5000FFF78CFB0120FFF7A1FB0120FFF7B6FB6A
:103E60000CE05CB90020FFF769FB0020FFF77EFB48
:103E70000020FFF793FB0020FFF7A8FBB8F1A00F8D
:103E80000ED16FB90798FCF74AFA0598FCF747FA84
:103E9000099A91B20898FEF71DFF08A8FEF76AFB81
:103EA00000BF40E7636D6469643A2025732C20727B
:103EB00065713A2025732C207265715F6C656E3ACE
:103EC0002025640D0A000000003801404572720090
:103ED0004F6B0000546970733A0953656E64202576
:103EE000730D0A00546970733A094D657373616705
:103EF00065204944204572720D0A00007265646CA9
:103F000065640000677265656E6C656400000000A2
:103F1000626565700000000079656C6C6F776C6598
:103F200064000000626C75656C656400616C6C6CAB
:103F30006564000030B5C5B00020419042904390C8
:103F40004490002400251CA1224800F017FE4FF4E5
:103F5000807101A8FCF707FC01A8FFF74BFD0446A0
:103F6000002C26D041A803230022214600901AA04D
:103F7000FEF710FCC8B908E001A8415D429A501C48
:103F8000429041988154681C05B2A542F4DB429AE4
:103F900091B24198FEF79EFE12A10E48429A00F09F
:103FA000EDFD41A8FEF7E6FA03E012A1094800F092
:103FB000E5FD45B030BD0000546970733A094F6E9D
:103FC000654E65745F53656E64446174612D45444C
:103FD000500D0A000038014035383736333231325F
:103FE0003500000053656E642025642042797465B5
:103FF000730D0A005741524E3A094544505F4E65D1
:1040000077427566666572204661696C65640D0A63
:104010000000000001460020034A506820F44040A0
:1040200008435060704700000010024029B1064A62
:10403000D2690243044BDA6104E0034AD269824345
:10404000014BDA61704700000010024029B1064AB6
:1040500092690243044B9A6104E0034A92698243E5
:10406000014B9A61704700000010024029B1064AD6
:10407000D2680243044BDA6004E0034AD268824308
:10408000014BDA60704700000010024030B500219B
:104090000022002400232D4D6D6805F00C0121B194
:1040A000042905D0082923D105E0294D056022E027
:1040B000284D05601FE0254D6D6805F47012234DF5
:1040C0006D6805F48034022505EB92421CB9224D3F
:1040D000554305600BE01D4D6D6805F400351DB1BD
:1040E0001E4D5543056002E01A4D5543056002E040
:1040F000174D056000BF00BF144D6D6805F0F0015D
:104100000909174D6B5C0568DD4045600F4D6D6812
:1041100005F4E061090A124D6B5C4568DD4085607D
:104120000A4D6D6805F46051C90A0D4D6B5C456818
:10413000DD40C560054D6D6805F44041890B094DB2
:104140006B5CC568B5FBF3F5056130BD001002403E
:1041500000127A00001BB70000093D00808D5B0053
:1041600000000020100000207047F0B50346012435
:10417000002600250020086000BF1046571CBAB278
:104180001D5C05F07F07086807FB04000860E40178
:10419000761C042E02D94FF0FF30F0BD05F08000F0
:1041A0000028EAD11046F8E708B500200090052065
:1041B000FFF736F800F030F86420FEF77BF90021B5
:1041C000E32000F0AAF8134908604B20FEF792F9AB
:1041D0000021E52000F0A1F80E4948601E20FEF7FE
:1041E00089F900F019F81E20FEF784F96A46E621E5
:1041F0004020FEF71AFF6420FEF75CF900F00CF88F
:104200006420FEF757F900F012F86420FEF752F927
:1042100008BD00002000002008B5002000906A467C
:10422000E7214020FEF7CCFE9DF8000008BD10B548
:104230000022FE214020FEF7F8FE10BD2DE9F84FC8
:1042400082464FF0000B2AF0030A504601F0FCFDB5
:10425000009001F071FC8046074A084B01F092F98A
:1042600006460022064B01F07DFB044600F038FFB5
:1042700083465846BDE8F88F7644CF7701405F3FCC
:10428000000018402DE9F84F82464FF0000B2AF04D
:10429000030A504601F0D8FD009001F04DFC804625
:1042A000074A084B01F06EF90646074A074B00F033
:1042B00049FF044600F014FF83465846BDE8F88FD6
:1042C000D7A3703D0AF7653FCDCCCCCCCC6C47C0B2
:1042D00070B503460C46154600210026002200BF9B
:1042E00013E0985C414008260BE001F0800020B10B
:1042F000312080EA4100C1B201E04806010E701E83
:10430000C6B2002EF1DC501CC2B2A242E9DBA942C7
:1043100001D0012070BD0020FCE72DE9F8430646DE
:104320000C4600270025A846A9468025FEF77EFFFB
:104330002846FEF741FF4CF25030FEF7BBFF10B1AC
:104340000020BDE8F8833046FEF736FF4CF25030CF
:10435000FEF7B0FF08B10020F3E7FEF767FF691C26
:10436000C8B2FEF729FF05E0FEF760FF691CC8B27E
:10437000FEF722FF4CF25030FEF79CFF0028F3D1ED
:104380004B20FEF7B7F8FEF7E7FE8DF80000FEF7CA
:104390007BFEFEF7E1FE8DF80100FEF775FEFEF7ED
:1043A000DBFE0746FEF7B6FEFEF762FF3A46022145
:1043B0006846FFF78DFF9DF801009DF8001000EBA7
:1043C00001201FFA80F8E32E04D14046FFF75AFF80
:1043D000814603E04046FFF731FF81461CB1484665
:1043E00001F0FAFC20804846ABE70000F8B504462F
:1043F0000D4616461F4601210420FFF727FE102018
:10440000ADF800008DF8030003208DF80200694626
:104410000548FEF79EFC054800F082F8102103488D
:1044200000F008F90120F8BD00080140003001400B
:1044300021B1028842F04002028004E002884FF677
:10444000BF731A40028070470246002013890B4058
:104450000BB1012000E000207047014688897047B9
:104460008181704710B50022028802F441520B8806
:104470004C8823438C882343CC8823430C892343D3
:104480004C8923438C892343CC8923431A430280DC
:10449000838B4FF2FF74234083830B8A038210BD0A
:1044A0002DE9F04107460D461646002410210A4822
:1044B000FEF72BFD00BF06E0295D084800F092F8EA
:1044C0002855601CC4B2B442F6DB10210248FEF746
:1044D0001EFD2046BDE8F08100080140003001408B
:1044E0002DE9F04107460D461646002410210A48E2
:1044F000FEF70BFD00BF05E0295D084800F072F8EB
:10450000601CC4B2B442F7DB10210348FEF7FFFC85
:104510002046BDE8F0810000000801400030014065
:1045200038B504462A48844216D1012141F20400DC
:10453000FFF78CFDE020ADF8000018208DF8030097
:1045400003208DF8020069462248FEF702FCE021B4
:104550002048FEF7DCFC1BE01F48844218D10121F3
:104560000820FFF773FD01218803FFF75FFDA0001E
:10457000ADF8000018208DF8030003208DF802002C
:1045800069461648FEF7E5FBA1001448FEF7BFFC9C
:104590000020134908804FF48270488000208880F2
:1045A0000220C8800120088140024881382088818B
:1045B0000020C881072008822046FFF753FF012111
:1045C0002046FFF735FFFF21204600F00BF838BDED
:1045D000003001400008014000380040000C01405C
:1045E0004400002070B505460E46002405E0601C1E
:1045F000C4B2C82C01DD002070BD02212846FFF79F
:1046000023FF0028F3D031462846FFF729FF002476
:1046100005E0601CC4B2C82C01DD0020ECE70121DC
:104620002846FFF711FF0028F3D02846FFF715FFB3
:10463000C0B2E1E770B505460C46054884810146E5
:104640002846FFF70FFF01212846FFF7F1FE70BD56
:1046500044000020704710B500F002F810BD0000C3
:104660000CB50020019000903348006840F4803081
:104670003149086000BF3048006800F40030009005
:104680000198401C0190009818B90198B0F5A06FEE
:10469000F1D12948006800F4003010B101200090E9
:1046A00001E0002000900098012843D123480068D1
:1046B00040F01000214908600846006820F003001F
:1046C00008600846006840F0020008601A48406828
:1046D000194948600846406848600846406840F408
:1046E000806048600846406820F47C1048600846B6
:1046F000406840F4881048600846006840F08070C8
:10470000086000BF0C48006800F000700028F9D075
:104710000948406820F0030007494860084640689F
:1047200040F00200486000BF0348406800F00C0001
:104730000828F9D10CBD0000001002400020024002
:104740007047000010B51348006840F0010011499F
:10475000086008464068104908400E49486008460D
:1047600000680E4908400B4908600846006820F4BC
:10477000802008600846406820F4FE0048604FF43E
:104780001F008860FFF767FF4FF000600449086072
:1047900010BD0000001002400000FFF8FFFFF6FE11
:1047A00008ED00E010B540F22551044800F050F843
:1047B00018B12021014800F029F810BD003801404F
:1047C00010B540F225510E4800F042F8B0B10D4846
:1047D0000088802802D300200A4908800848001D6C
:1047E0000088C1B2074802880088401C054B188029
:1047F000054881542021024800F008F810BD00004F
:1048000000440040300000205600002001F40072F7
:10481000B2F5007F00D100BFCA430280704721B1CA
:10482000828942F40052828104E082894DF6FF734E
:104830001A408281704702460020B1F5007F00D106
:1048400000BF13880B400BB1012000E0002070472F
:1048500070B50246002400230025002040F66A16A9
:10486000B14200D100BFC1F3421501F01F03012680
:1048700006FA03F3012D02D19689334006E0022D9A
:1048800002D1168A334001E0968A33400C12012689
:1048900006FA04F41688344013B10CB1012000E08C
:1048A000002070BDF0B5034600240026002500203E
:1048B00040F66A17B94200D100BF1846C1F342144E
:1048C00001F01F06012707FA06F5012C01D10C3073
:1048D00004E0022C01D1103000E014301AB1076856
:1048E0002F43076002E00768AF430760F0BD000098
:1048F0002DE9F04786B005460E460024A24600BFCB
:10490000A1460027B08900B100BF2F462C8A4CF683
:10491000FF700440F08804432C82AC894EF6F310FB
:104920000440B08831890843718908430443AC814D
:10493000AC8A4FF6FF400440B0890443AC8201A822
:10494000FFF7A4FB1F48874202D1DDF810A001E069
:10495000DDF80CA0A88900F4004040B10AEBCA00C1
:1049600000EB0A1031684900B0FBF1F807E00AEBF0
:10497000CA0000EB0A1031688900B0FBF1F864202E
:10498000B8FBF0F004012009642101FB1089A8891B
:1049900000F4004040B1322000EBC900B0FBF1F060
:1049A00000F00700044308E0322000EB0910642106
:1049B000B0FBF1F000F00F0004432C8106B0BDE81D
:1049C000F087000000380140C1F308028280704780
:1049D00002A1124800F0D2F800BFFEE70D0A2A2A11
:1049E0002A2A2A2A2A2A2A2A2A2A2A2A2A2A2A2A27
:1049F0002A55736167654661756C745F48616E64C2
:104A00006C65722A2A2A2A2A2A2A2A2A2A2A2A2A41
:104A10002A2A2A2A2A2A0D0A00000000003801400A
:104A200010B586B0044601210420FFF70FFB0121D9
:104A30008803FFF70BFB18208DF817004FF4007068
:104A4000ADF8140003208DF8160005A91E48FEF7E6
:104A500080F904208DF817000002ADF8140003203F
:104A60008DF8160005A91848FEF773F90194002087
:104A7000ADF810000C20ADF80E000020ADF80C00D1
:104A8000ADF80A00ADF8080001A91048FFF730FFA3
:104A900001210E48FFF7C3FE012240F225510B48C9
:104AA000FFF700FF25208DF8000001208DF803009E
:104AB00000208DF8010002208DF802006846FEF704
:104AC000F1FD06B010BD00000008014000380140B3
:104AD00010B586B0044601210420FFF7B7FA012182
:104AE0004804FFF7A3FA18208DF817000420ADF84A
:104AF000140003208DF8160005A91E48FEF729F9B9
:104B000004208DF817000820ADF8140003208DF85C
:104B1000160005A91748FEF71CF901940020ADF80E
:104B200010000C20ADF80E000020ADF80C00ADF820
:104B30000A00ADF8080001A90F48FFF7D9FE0121CE
:104B40000D48FFF76CFE012240F225510A48FFF79D
:104B5000A9FE26208DF8000001208DF8030000201A
:104B60008DF801008DF802006846FEF79BFD06B047
:104B700010BD000000080140004400400FB430B5F3
:104B8000CBB0054601AC50A800904FF4947101A839
:104B9000009B4F9AFBF7EAFB002000900BE014F813
:104BA000011B2846FFF710FF00BF40212846FFF7F2
:104BB00042FE0028F9D020780028F0D14BB030BC5C
:104BC0005DF814FB2DE9F04107460C46154600261A
:104BD0000DE014F8011B3846FFF7F6FE00BF402138
:104BE0003846FFF728FE0028F9D0701C86B2AE4286
:104BF000EFDBBDE8F08170B503460024002500BF5F
:104C000001F07F05C90909B145F080051046561C21
:104C1000B2B21D54641C09B1052CF1DB501E80B2E8
:104C2000024670BD490050EAC12018BF04204A0D59
:104C300018BF40F0010040F2FF72B2EB515F08BFB5
:104C400040F00200012808BF052070472DE9F0411F
:104C50004F1E00EBC7010446D1E9000115461E4670
:104C600037F006020DD02A46334600F08BFC7F1E3B
:104C700004EBC703D3E9002300F064FA37F006021F
:104C8000F1D1022F25D0042F13D0062F18BFBDE875
:104C9000F0812A46334600F075FCD4E90A2300F07F
:104CA00051FA2A46334600F06DFCD4E9082300F09F
:104CB00049FA2A46334600F065FCD4E9062300F0A1
:104CC00041FA2A46334600F05DFCD4E9042300F0A3
:104CD00039FA2A46334600F055FCD4E9022300F0A5
:104CE00031FA2A46334600F04DFCD4E90023BDE8F2
:104CF000F04100F027BA012201F0ADB9024A0020CC
:104D0000110701F0A8B9000001FDFFFF30380A28A3
:104D100001D2012070470020704700002DE9F84FB4
:104D200004460D4621F0004000917349814211DC98
:104D30007249884201DC06D12CB120462946BDE8E3
:104D4000F84FFFF7D8BF6E48002DCCBF6D496E49B4
:104D5000BDE8F88F6D49814211DD6D498142D8BFB0
:104D60004FF0FF366DDD20462946FFF75BFF042834
:104D700008BFFFF7C3FF20462946BDE8F88F654905
:104D8000654F25F00045814233DD6449814219DDDC
:104D9000002632464FF080432046294600F0D2F9E3
:104DA00080468A4601222046294601F054F9002215
:104DB0003B4600F0D7FD4246534600F073FA0446E6
:104DC0000D463EE001260022BA463B4620462946D3
:104DD00000F0B8F980460F46002253462046294687
:104DE00000F0C0FD42463B4600F05CFA04460D462A
:104DF00027E04B4981421BDDDFF828A10226002273
:104E000053462046294600F0BDFB00223B4600F0F9
:104E100099F980460F46002253462046294600F065
:104E2000A1FD42463B4600F03DFA04460D4608E02F
:104E3000032622462B4600203B4900F033FA044665
:104E40000D4622462B461046194600F09BFB8B462A
:104E5000824602460B4600F095FB07460246334861
:104E600088460B4606217844FFF7F0FE52465B4623
:104E700000F088FB82462E488B463A464346052181
:104E80007844FFF7E3FE3A46434600F07BFB0246D8
:104E90000B46002E504659460CDA00F053F92246D4
:104EA0002B4600F06FFB01B022462B46BDE8F04FC9
:104EB00000F066BC00F046F922462B4600F062FB8B
:104EC0001C4A7A4402EBC603D3E9002300F04AFDF2
:104ED00022462B4600F046FD174A7A4402EBC603F1
:104EE000D3E9002300F04CFC009A002AB8BF81F0FF
:104EF0000041BDE8F88F0000000010440000F07F82
:104F0000182D4454FB21F93FFB21F9BF0000DC3F81
:104F10000000203E0000F33F0000F03F0000E63FAD
:104F2000008003400000F83F0000F0BFF6120000D0
:104F3000B4120000521200001A12000000250024D2
:104F4000FEF712F8FDF7B4FD03E04FF4FA70FDF739
:104F5000D1FAFEF7E9FB0028F7D10120FDF774FA3A
:104F6000FA20FDF7C7FA0020FDF76EFA57E0FEF7CA
:104F700023FA30B1032825D006280DD009282CD1DA
:104F800015E02748007818B90120FEF7D7FA02E0AB
:104F90000020FEF7D3FA21E02148407818B901201B
:104FA000FEF7E4FA02E00020FEF7E0FA16E01C4803
:104FB000807818B90120FEF7F1FA02E00020FEF730
:104FC000EDFA0BE01648C07818B90120FEF7FEFA9A
:104FD00002E00020FEF7FAFA00E000BF00BF681C04
:104FE00080B20546B0F5FA7F0EDBFEF77DFAFFF7DB
:104FF000DBF8FDF71BF90BA10F48FFF7BFFDFEF72C
:1050000099FF0025FDF71EFD0020FDF729FD044650
:1050100014B12046FEF732FE0A20FDF76BFAA6E730
:10502000190000204F6E654E65745F53656E6444D1
:105030006174610D0A000000003801402DE9F04163
:1050400006460F4600F0A8FB041E0D4618BF0120BF
:10505000284320F00040C0F17F6000F1E040C00F25
:105060000ED0301C18BF0120384320F00040C0F1A2
:105070007F6000F1E040C00F04BF0120FBF7F9FBA7
:1050800020462946BDE8F08110B500290AD00878ED
:10509000002807D005487844FCF7AEFA002801D074
:1050A000002010BD0248784410BD0000DE11000051
:1050B000D611000010B500290AD00878002807D0C2
:1050C00005487844FCF798FA002801D0002010BD6C
:1050D0000248784410BD0000CE110000C611000047
:1050E00021F00042A2F16052B2F5801F01F00043AE
:1050F00028BFD2F17F6C0BD95FEA001C43EAC202E1
:1051000042EB507018BF704728BF20F00100704775
:10511000B2F5801FBCBF184670474FEA410C1CF522
:10512000001F02D2084600F0E8BE70B500F0D4FAC5
:1051300000000089FFF7F6BF4FF00040A0F58000A7
:105140007047000010B591EA030F48BF83F0004399
:1051500000F11084841A71EB030C05D2121943EB91
:105160000C03001B61EB0C01DFF824E14FEA115442
:10517000A4EB135C1EEA430F18BF9EEA445F73D092
:1051800023EA0E03DCF1200E21EA045143F48013DC
:1051900032D322FA0CFE10EB0E0023FA0CFE41EB88
:1051A0000E01CCF1200E03FA0EFE10EB0E0051F1B1
:1051B0000001B1F5801FCCF1200E32D201EB045179
:1051C00012FA0EF2BDE8104058BF7047401C38BFBD
:1051D0005FEA420218BF7047002814BF20F00100A8
:1051E00041F100014FEA410313F5001F38BF70473A
:1051F000A1F1C04100F0BEBA012A43EB0302ACF1B9
:10520000200CDCF11F0E32BF4FF0000E23FA0CF31E
:1052100010EB030041EB0451B4EB115FD0D0A1EBD4
:10522000045101F5801149085FEA300001EB045197
:105230000ED350F1000038BF12FA0EFE08D1BDE8BF
:105240001040C9E7401C38BF5FEA4202CAD1C3E739
:10525000BDE810404FEA410313F5001F38BF704707
:10526000A1F1C04100F086BA9EEA445F08D011EA7D
:105270005E0FBDE8104004BF01F000410020704700
:10528000BDE8104070B500F027FA00BF64FBBE3ED9
:105290000000E0FF02494FF0000000F0AABE00BF8E
:1052A0000000F87F2DE9C04130B4DFF8A0C23CEA2D
:1052B000111418BF3CEA131400F0EC8081EA0305D6
:1052C0001CEA111444EAD57418BF1CEA131500F047
:1052D000C780A4EB05044FF0004545EAC12145EA2B
:1052E000C32341EA505143EA525304F17F74994277
:1052F00004F500344FEAC0204FEAC22208BF9042B2
:1053000000F09C804FEA13650FF24016765D4FEA7D
:10531000134506FB05F7C7F1807706FB07F74FEA51
:10532000D737A7FB03687642C8F58038A7FB06CEBF
:1053300038BFA8F1010807FB08E64FF0000EA6FBF6
:10534000028CE6FB03CEDCF1000CCEF1004E38BF40
:10535000AEF1010EA6FB0C584FF000074FF0000510
:10536000E6FB0E87A1FB08C6A0FB07CE16EB0E06D8
:1053700045F10005E1FB076515F1E04E7EBFA4F5A0
:1053800080345FEA46066D4116F1800745F100055D
:105390004FEA17274FEA066647EA0567A6F1DE4699
:1053A000B6F1805F4FEA15251FD9384624F0010C6D
:1053B00005EBC471BCF1FE6F01EB0C1102D8F0BC1F
:1053C000BDE8008124425CBF01F5801E9EEAC47FD7
:1053D00002D4F0BCBDE80081244238D4F0BCA1F175
:1053E000C041BDE8004100F0C5B94FEAD22242EA0F
:1053F00043524FEAD323A7FB02864FEAD02040EA6C
:10540000415007FB03661EEA0E0F4FEAD12105FB50
:10541000026658BFA6EB0056B6EB00564FEA520E96
:105420004EEAC37E18EB0E0E56EB530EBDD518EBAD
:1054300002085E417F1C55F10005B6E74FF4801568
:105440004FF000074FF000064FF00008ADE7F0BC4A
:105450004FF0000001F1C04101F00041BDE80081C2
:1054600011EA0C1F0CEA131500D00CE013EA0C1F14
:1054700000F025804FF00000F0BC81EA030101F04C
:105480000041BDE80081F0BCBDE8004181EA0301B4
:1054900000F070B9F0BCBDE8004170B500F01CF937
:1054A000097EFC3E00F007B881EA03014FF00000DE
:1054B00001F00041704781EA030100F05BB9F0BCE4
:1054C000BDE800414FF0000021497047FFFDFBF9A6
:1054D000F7F5F4F2F0EEEDEBE9E8E6E4E3E1E0DE27
:1054E000DDDBDAD8D7D5D4D3D1D0CFCDCCCBCAC899
:1054F000C7C6C5C4C2C1C0BFBEBDBCBBBAB9B8B7C0
:10550000B6B5B4B3B2B1B0AFAEADACABAAA9A8A8B2
:10551000A7A6A5A4A3A3A2A1A09F9F9E9D9C9C9B80
:105520009A9999989797969595949393929191902B
:105530008F8F8E8E8D8C8C8B8B8A898988888787BC
:105540008685858484838382828181800000FF0731
:105550000000F87F10F0004248BF4042B0FA80F3EC
:1055600010FA03F10AD0C3F11D0303F580634FEA7B
:10557000415002EB035202EBD12170474FF0000083
:1055800070470000DFF848C170B51CEA111E1EBF4D
:105590001CEA13159EEA0C0F95EA0C0F00F06F80C1
:1055A00081EA030423EA4C134EEAD47E21EA4C112B
:1055B00041F4801143F48013AE44A1FB024CA0FBE4
:1055C0000365AEF17F7E361955EB0C05A1FB034C4C
:1055D0004CF10003A0FB021C16EB0C06654153F1D5
:1055E0000003094218BF46F0010613F4007F0BD1F7
:1055F0004FEA03314FEA0530340341EA155140EADE
:1056000016506FF003020AE04FEAC3214FEAC520AB
:10561000F40241EA555140EA56506FF0020202EBA3
:105620002E4201EB025585EACE710AD05FEA440CA6
:1056300018BF24F0004450F1000041F1000120EABD
:10564000D47040F2FE7C624500D270BDA84214BF07
:105650004FF080444FF04044002E08BF0024BEF1BC
:10566000806FA8BFA1F1C041BDE8704080F2828088
:105670004FF0000001F1C04101F0004170479EEA87
:105680000C0F0CEA131518BF95EA0C0F06D04FF05B
:10569000000081EA030E0EF0004170BD00F01CF81E
:1056A0008900013E00F007B800F009B84FEA430C4A
:1056B0005FEA5C5C08D081EA030100F05BB84FEA66
:1056C000410C5FEA5C5CF6D14FF000000149704785
:1056D0000000FF070000F87F0EF1020E2EF0030E0F
:1056E0005EF8046B364205D4012A43EB030515F539
:1056F000001F12D8012841EB010C1CF5001F0CD82B
:105700000ED14FEAD17C15F5001F0CEB4C0C0CF1BF
:10571000020C08BF4CEBD37C04E04FF0080C01E016
:105720004FEAD37C0CEB4C0526FA05F606F007068B
:10573000B6F1040C06D20EEB860CBDE870404CF0BE
:10574000010C6047DFE80CF0090B02024FF000414A
:105750004FF00000A1F5002170BD19461046012848
:1057600051EB010418BFD4F5001484BF002001F0F0
:10577000004170BD0808A0F500114FEA31017047E3
:1057800091EA030F10B581F000413FF5E3AC83F0DF
:10579000004300F0EFB800002DE9F04101F5801C56
:1057A000BCF5001FC0F2C3804FEA115C21EA0C5126
:1057B0000CF1FD0C41F480115FEA5C0C0CF5C07C2F
:1057C00001D3400049413DA4890241EA905187023A
:1057D0008E0E0A0CA45D04FB04F602FB06F6C6F16D
:1057E0004046A4FB0662F60D46EA422606FB06F496
:1057F000A4FB01235242C3F1404338BF5B1EA6FB0A
:1058000002420024E6FB0324D20B42EA4446A6FBF4
:105810000623A1FB02E2A3FB07E4A4184FF0000259
:1058200052F10002E3FB01426442C2F1404E38BF34
:10583000AEF1010EA6FB04234FF00002E6FB0E3290
:10584000A2FB03464FF00004B61954F10004E2FB3A
:105850000264A1FB06E6A4FB07E816EB08064FF07E
:10586000000858F10008E4FB01687642C8F140588E
:1058700038BFA8F10108A2FB06E4A3FB08E52D1937
:105880004FF0000454F10004E2FB0854A1FB05E6CC
:10589000A7FB04E818EB06084FF0000656F10006D7
:1058A000E1FB048618F1200556F10006A809A8F1CD
:1058B0001B08B10908F03F08B8F10A0F40EA8660FA
:1058C0001CD901EB0C51BDE8F08100BFFCF5EEE8FE
:1058D000E2DDD8D3CFCBC7C3C0BDB9B6B4B1AEAC8F
:1058E000A9A7A5A3A19F9D9B9A9896959392908F07
:1058F0008D8C8B898887868584838281A0FB006854
:1059000000FB01F208EB4208B8EB872807D53418F2
:1059100058EB0104D5D5401C51F10001D1E7341AF0
:1059200078EB0104CDD4401E71F10001C9E75FEAB4
:105930004C0C5FEA9C5C0DD105D34FF0000001F0E8
:105940000041BDE8F081BDE8F04170B5FFF7C4FE4D
:105950006DDBFFBEBDE8F0414FF00000004970472D
:105960000000F87F10B591EA030F48BF83F00043B1
:105970003FF5F0AB841A71EB030C07D212198CF0CF
:10598000004C43EB0C03001B61EB0C01DFF8A4E1BE
:105990004FEA1154A4EB135C1EEA430F18BF9EEAB2
:1059A000445F00F0B08023EA6E03524221EA0451C2
:1059B000C3EB6E0338BF5B1EDCF1200E25D322FA49
:1059C0000CFE10EB0E0043FA0CFE41EB0E01CCF185
:1059D000200E03FA0EFE10EB0E0051F10001CCF187
:1059E000200E29D412FA0EF201EB0451BDE810404A
:1059F00058BF7047401C1CBFB2F1004F70470028D1
:105A00000CBF491C20F00100704712EB020E43EB63
:105A1000030218BF4FF0010E4EEA4202ACF1200C17
:105A2000DCF11E0E54D943FA0CFE10EB0E0051F1BE
:105A3000FF31CCF11E0ED5D50EF1010E12FA0EFE7D
:105A4000404141EB010101EB445C5FEA5C5C10D931
:105A500010EBDE7001EB045138BFBEF1004FBDE822
:105A6000104018BF704700280CBF491C20F00100EF
:105A7000704730D24FEAD42C11F5001124F40064A1
:105A80001BD0B1FA81F20B3AA41AA41ED2F1200362
:105A9000914030FA03F31943904001EBCC71002C94
:105AA00001EB0451BDE81040A8BF704701F1C041AF
:105AB0004FF0000001F000417047B0FA80F310FA97
:105AC00003F100D110BDE41A173C4805C90AE4E708
:105AD00001EB045110BD491001EB0451BDE8104029
